:020000040800F2
:10000000F0120020897E00087508000877080008B3
:100010007B0800087F080008830800080000000033
:100020000000000000000000000000008708000839
:1000300089080008000000008B0800088D080008EF
:10004000A37E0008A37E0008A37E0008A37E00080C
:10005000A37E0008A37E0008A37E0008A37E0008FC
:10006000A37E0008A37E0008A37E0008A37E0008EC
:10007000A37E0008A37E0008A37E0008A37E0008DC
:10008000A37E0008A37E0008A37E0008A37E0008CC
:10009000A37E0008A37E0008A37E0008A37E0008BC
:1000A000A37E0008A37E0008A37E0008A37E0008AC
:1000B000E95B0008A37E0008A37E0008A37E000879
:1000C000A37E0008A37E0008A37E0008A37E00088C
:1000D000A37E0008FD7D0008A37E0008A37E000823
:1000E000A37E0008A37E0008A37E0008A37E00086C
:1000F000A37E0008A37E0008A37E0008A37E00085C
:10010000A37E0008A37E0008A37E0008A37E00084B
:10011000A37E0008A37E0008A37E0008A37E00083B
:10012000A37E0008A37E0008A37E0008A37E00082B
:10013000A37E0008A37E0008A37E0008A37E00081B
:10014000A37E0008A37E0008A37E0008A37E00080B
:10015000A37E0008A37E0008A37E0008A37E0008FB
:10016000A37E0008A37E0008A37E0008A37E0008EB
:10017000A37E0008A37E0008A37E0008A37E0008DB
:10018000A37E0008A37E000800F002F800F067F8E4
:100190000AA090E8000C82448344AAF10107DA45E2
:1001A00001D100F05CF8AFF2090EBAE80F0013F0CD
:1001B000010F18BFFB1A43F0010318473CCC0000A5
:1001C0005CCC00000A444FF0000C10F8013B13F027
:1001D000070408BF10F8014B1D1108BF10F8015BA0
:1001E000641E05D010F8016B641E01F8016BF9D193
:1001F00013F0080F1EBF10F8014BAD1C0C1B09D1EA
:100200006D1E58BF01F801CBFAD505E014F8016B5B
:1002100001F8016B6D1EF9D59142D6D370470000ED
:100220000023002400250026103A28BF78C1FBD8FF
:10023000520728BF30C148BF0B60704764290AF0DD
:10024000FB8278290AF0348373290AF0178400208E
:1002500070471FB50BF063F91FBD10B510BD0AF054
:1002600047FC1146FFF7F5FF00F039F80AF065FC8E
:1002700003B4FFF7F2FF03BC07F05CFDF8B5002400
:100280002AE0FE4A02EB840292ED000ABCEEC00AAC
:1002900010EE102A91B2A0B2002200F097FD0020CB
:1002A000F64E651C06EB8505009095ED000ABCEE48
:1002B000C00A10EE105AABB2651CAAB2354605EB67
:1002C000840595ED000ABCEEC00A10EE105AA9B2E2
:1002D000A0B200F087FD641CFA2CD2DBF8BD1FB57C
:1002E0004FF4A06007F0F0FDA82007F0A1FC4FF448
:1002F000E13007F02DFD00F039FE01F0DCFB0620B7
:1003000001F023F8002001F0A4FB05F05BFA05F0F2
:10031000D0FB07F02AFC42F2CF0140F2E73005F0B3
:1003200036FC00F0BDFB05F0D8FA05F00CFBD44913
:10033000088089E2D3480078401ED34931F8100084
:10034000D2490880D248007800287DD1D148008861
:10035000D149088036E1D148CF49098830F81100E9
:1003600040F6E441484300EE100AB8EEC00ACC481B
:10037000D0ED000A20EE200ADFEDCA0A80EE201A36
:10038000B3EE090A61EE000AC048008800EE100AC8
:10039000B8EE400A80EE801AC34880ED001ABF49CB
:1003A000BD480088401C31F8100040F6E441484345
:1003B00000EE100AB8EEC00AB948D0ED000A20EEEF
:1003C000200ADFEDB80A80EE201AB3EE090A61EECA
:1003D000000AAE48008800EE100AB8EE400A80EE2F
:1003E000801AB24880ED001AAF4890ED000ADFEDA8
:1003F000B00AB4EEE00AF1EE10FA03DD9FEDAC0AAC
:1004000080ED000AA84890ED000AB5EEC00AF1EEB2
:1004100010FA03D29FEDA70A80ED000AA34890EDE1
:10042000000ADFEDA30AB4EEE00AF1EE10FA03DDF4
:100430009FED9F0A80ED000A9C4890ED000AB5EE02
:10044000C00AF1EE10FA00E0D3E003D29FED990A62
:1004500080ED000A904A12888E4B1B88D21A874B77
:1004600003EB820292ED000ABCEEC00A10EE102AE5
:1004700091B2894A1288874B1B88D21A90B2002207
:1004800000F0A4FC0020844D00902D88814E368819
:10049000AD1B6D1C794E06EB850595ED000ABCEE93
:1004A000C00A10EE105AABB27B4D2D88794E3688BB
:1004B000AD1B6D1CAAB2784D2D88764E3688AD1BCB
:1004C0006E4E06EB850595ED000ABCEEC00A10EEF7
:1004D000105AA9B2704D2D886E4E3688AD1BA8B249
:1004E00000F080FC704A92ED000ABCEEC00A10EEEB
:1004F000102A91B2684A1288664B1B88D21A90B2B1
:100500004FF6E07200F062FC4FF6E070674D00902D
:1005100095ED000ABCEEC00A10EE105AABB25E4D6B
:100520002D885C4E3688AD1B6D1CAAB25E4D95EDD4
:10053000000ABCEEC00A10EE105AA9B2564D2D8822
:10054000544E3688AD1BA8B200F04CFC00F060FCA5
:10055000554890ED000A504800884E490988401AD5
:10056000464901EB800080ED000A4C484A49098861
:1005700030F8110040F6E441484300EE100AB8EEAE
:10058000C00A4748D0ED000A20EE200ADFED4A0AF3
:1005900080EE201ABCEEC10A10EE100AC4B24FF46D
:1005A000784000211023CDE9003106232246CDE911
:1005B0000210CB212E2005F058F837480088401C47
:1005C000354908803448018832480088FA30814231
:1005D000FFF6C1AE39480068401E394931F81000B5
:1005E0003849088005F079F905F0ADF9244908800B
:1005F0002AE1354800680028FAD0FFF73FFE254879
:1006000000883249098808442349088009E12348C1
:100610002149098830F8110040F6E441484300EED2
:10062000100AB8EEC00A1E48D0ED000A20EE200ADB
:100630009FED1C1AC0EE010AB3EE090A20EE801AE3
:100640001248008800EE100AB8EE400AC1EE000A17
:100650001F4890ED000AB8EEC00A30EE800A12483A
:1006600080ED000A0D490C480088401C31F810004C
:1006700040F6E441484300EE100A2BE0CC02002093
:1006800020000020440000206A00002038000020E4
:100690002E0000205802002000000020C20600208A
:1006A00064020020000080450400002008000020B3
:1006B000000048430000000000F07F454800002093
:1006C000500000203A0000204C00002034000020A0
:1006D00030000020B8EEC00A5C48D0ED000A20EEE1
:1006E000200A5FED100A80EE201AB3EE090A21EE0F
:1006F000001A5748008800EE100AB8EE400AC1EE12
:10070000000A544890ED000AB8EEC00A30EE800AA4
:10071000514880ED000A514890ED000A5FED1C0A37
:10072000B4EEE00AF1EE10FA03DD1FED1F0A80EDD2
:10073000000A4A4890ED000AB5EEC00AF1EE10FA40
:1007400003D21FED240A80ED000A434890ED000A11
:100750005FED290AB4EEE00AF1EE10FA03DD1FEDB9
:100760002C0A80ED000A3C4890ED000AB5EEC00A64
:10077000F1EE10FA03D21FED310A80ED000A374A7C
:1007800092ED000ABCEEC00A10EE102A91B2344A73
:100790001288344B1B88D21A334B1B88D21A90B262
:1007A0004FF6E07200F012FB4FF6E0702A4D009019
:1007B00095ED000ABCEEC00A10EE105AABB2284DFF
:1007C0002D88284E3688AD1B274E3688AD1B6D1CF4
:1007D000AAB2224D95ED000ABCEEC00A10EE105AE6
:1007E000A9B21F4D2D881F4E3688AD1B1E4E368870
:1007F000AD1BA8B200F0F6FA184890ED000A1848B0
:10080000008818490988401A17490968401A174989
:1008100001EB800080ED000A11480088401C10495F
:10082000088010480088104909680844FA300C49CB
:10083000098888423FF7EBAE00F0EAFA642007F03F
:1008400059FA00200A49086074E50000640200209B
:1008500038000020300000200800002004000020A4
:10086000000000205802002034000020CC020020AC
:100870004C000020704700BFFEE700BFFEE700BF4E
:10088000FEE700BFFEE77047704770477047000003
:100890000CB50020019000907648006840F480304C
:1008A0007449086000BF7348006800F4003000908D
:1008B0000198401C0190009818B90198B0F5A04F1C
:1008C000F1D16C48006800F4003010B101200090B4
:1008D00001E0002000900098012846D16548403092
:1008E000006840F080506349403108606248006809
:1008F00040F44040604908605E48083000685D4947
:10090000083108600846006840F400400860084666
:10091000006840F4A05008605848091F0860081F8C
:10092000006840F08070091F086000BF51480068EF
:1009300000F000700028F9D040F2057050490860BE
:100940004C480830006820F003004A49083108602C
:100950000846006840F00200086000BF45480830C3
:10096000006800F00C000828F8D10CBD10B545480F
:10097000006840F47000434908603E48006840F059
:1009800001003C49086000203A49083108603948B4
:1009900000683D490840374908603C48091D086027
:1009A000081F006820F48020091F086000203149DA
:1009B0000C310860FFF76CFF4FF00060314980395F
:1009C000086010BD70B5002000220223002402211F
:1009D000284D08352D6805F00C0020B1042806D0FC
:1009E000082834D107E02A4D2A4E356033E02A4DDD
:1009F000284E35602FE01F4D2D1D2D68C5F3805406
:100A00001C4D2D1D2D6805F03F0154B1224DB5FB45
:100A1000F1F5184E361D3668C6F3881605FB06F24A
:100A200009E01B4DB5FBF1F5124E361D3668C6F3D5
:100A3000881605FB06F20F4D2D1D2D68C5F30145E7
:100A40006D1C6B00B2FBF3F5124E356003E0104DE8
:100A5000104E356000BF00BF064D08352D68C5F348
:100A600003150E4E705D0B4D2D68C540094E356067
:100A700070BD00000038024000700040085440077C
:100A8000003C024088ED00E0FFFFF6FE103000243D
:100A90000024F4000C00002000127A001000002056
:100AA0001FB51F20FE49088008460088C823FA2287
:100AB00000210090084604F07AFCF948008864237D
:100AC000FA2219460090002004F016FCF448008831
:100AD000C8237D2200210090104604F00DFC4FF445
:100AE0007840EF490880F0234FF4A072CA210090AB
:100AF000002004F05CFCEA4800880021E9A21023F1
:100B0000CDE90032CDE90210C822CB21052004F046
:100B100012FEE34800880021E4A21023CDE9003250
:100B2000CDE90210C822DC21052004F004FEDC48D7
:100B300000880021DFA21023CDE90032CDE90210A8
:100B4000C822CB21A02004F0F6FDD5480088002162
:100B5000DBA21023CDE90032CDE90210C822DC214E
:100B6000A02004F0E8FD4FF6FF70CD490880C823AF
:100B70004FF4A07200210090FC2004F018FC1F200C
:100B800026234FF49E7202210090FF2004F00FFCF8
:100B90001F204E234FF49E722A210090FF2004F064
:100BA00006FC1F2065234FF49E7252210090FF2007
:100BB00004F0FDFB1F207C234FF49E7269210090FE
:100BC000FF2004F0F4FB1F20932340F21B1280212E
:100BD0000090FF2004F0EBFB1F2093234FF49E7244
:100BE000802100904FF4907004F0E1FB1F20AA23B5
:100BF0004FF49E7297210090FF2004F0D8FB4FF62F
:100C0000FF7026234FF49E7202210090FF2004F013
:100C1000CEFB1F20A2490880084600880021ABA215
:100C20001023CDE90032CDE90210C82203214FF490
:100C3000817004F080FD9A4800880021A5A210234D
:100C4000CDE90032CDE90210C8222B214FF481708A
:100C500004F071FD924801880022A0480068401EFF
:100C60009F4B03EBC0001023CDE90030CDE90221FA
:100C7000C82214214FF4817004F05DFD884801887A
:100C8000002298480078401E974B03EBC0001023C9
:100C9000CDE90030CDE90221C8223C214FF481701A
:100CA00004F049FD7E48028800219048006800EB6E
:100CB000C0008F4B18441023CDE90030CDE902125B
:100CC000C82254214FF4817004F035FD7448008827
:100CD000002188A21023CDE90032CDE90210C822FC
:100CE0006B214FF4827004F026FD6D4802880021CC
:100CF0008248007800EB8000814B03EB400010231A
:100D0000CDE90030CDE90212C8228221480004F06A
:100D100012FD6348028800217A48007800EB400009
:100D2000794B18441023CDE90030CDE90212C822D6
:100D300082214FF4917004F0FEFC59480188002292
:100D400072480068401E00EB4000714B03EB40000E
:100D50001023CDE90030CDE90221C822992140F2CB
:100D6000091004F0E8FC1F20C32340F21912AE2141
:100D7000009040F2011004F01AFB1F20C3234FF42F
:100D80009D72AE2100904FF4917004F010FB444826
:100D9000008800215FA21023CDE90032CDE90210C6
:100DA000C822B0214FF4817004F0C5FC3C48008893
:100DB000002159A21023CDE90032CDE90210C8224A
:100DC000B02140F2231004F0B6FC1FBD70B50546FB
:100DD0000C461646C4F1C80081B23246284600F0DF
:100DE00031FC70BD2DE9F84306460C4617461D46FA
:100DF000DDF82080C5F1C80083B2C4F1C80081B21B
:100E00003A463046CDF8008004F076FABDE8F88323
:100E100038B5002500241F202149088000BF0EE0BE
:100E2000002507E01E48028829462046FFF7CEFF2E
:100E3000681D85B2C82DF5DB04F1190084B2FA2CC7
:100E4000EEDB00240EE0002507E01548028821466D
:100E50002846FFF7BBFF681D85B2FA2DF5DB04F1CC
:100E6000190084B2C82CEEDB1F200D49088008460B
:100E70000088C823FA2200210090084604F097FA5F
:100E8000074800886423FA22194600900020FFF7E3
:100E9000A9FF03480088C8237D22002100903DE07F
:100EA00054020020562856293A0000005670702837
:100EB00056293A004672657128487A293A0000009E
:100EC000647574792825293A00000000564F4C2F8C
:100ED0006469760054494D2F64697600480000200B
:100EE0007800002044000020E000002024000020C2
:100EF0005C010020206C6F61640000002C00002069
:100F0000480100202D0000206E0100202800002054
:100F100018010020202B0000202D00001046FFF7B4
:100F200061FF38BD002019E00E4931F81010091298
:100F30000D4A918000BF0C49098801F04001002949
:100F4000F9D0084911F81010074A918000BF0649EE
:100F5000098801F040010029F9D0401CB0F5207F3C
:100F6000E2DB7047C2060020001001401CB50121E1
:100F7000084608F053F8C020009001208DF80400C6
:100F800000208DF8060003208DF8050001208DF863
:100F900007006946034807F0BFFAC021014807F07F
:100FA00037FB1CBD0000024001B5BDF800000090F9
:100FB000BDF80000F749088008BD01B5BDF8000084
:100FC0000090BDF80000F349891C088008BD08B5F1
:100FD000F048801C00880090BDF8000008BD03B5F3
:100FE000BDF80000EB490880BDF80400891C0880AA
:100FF0000CBD01B5BDF80000FFF7D6FF052006F0D7
:1010000031FEFFF7E4FF08BDE3480089E1490880AD
:101010007047E049891C0880704730B5014601F0EF
:101020001F04C1F34513CA0AE50205EB4315154435
:10103000A8B230BD00BF0100A0F10102D0B2FAD1C8
:10104000704730B504460D46D348808849F2413197
:10105000884205D0D048808845F21031884214D1AA
:10106000CD494889FFF7A0FF2012FFF7A6FFE0B2A5
:10107000FFF7A3FFC8498889FFF796FF2812FFF7FB
:101080009CFFE8B2FFF799FF5DE0C348808846F611
:10109000040188421DD1C0488079012804D1BE488E
:1010A0000088401E001B84B2BB494889FFF77CFFC3
:1010B0002012FFF782FFE0B2FFF77FFFB649888971
:1010C000FFF772FF2812FFF778FFE8B2FFF775FF0E
:1010D00039E0B148808845F21051884220D1AE49AC
:1010E0004889FFF761FF2012FFF767FFAA49498986
:1010F000491C88B2FFF758FFE0B2FFF75EFFA64930
:101100008889FFF751FF2812FFF757FFA249898905
:10111000491C88B2FFF748FFE8B2FFF74EFF12E024
:101120009D488079012804D19B480088401E001BFF
:1011300084B2994948892146FFF751FF9649888929
:101140002946FFF74CFF30BD3EB504460D46002052
:1011500002900190009090480088A04203DD8E48E4
:101160004088A84201DC00203EBD29462046FFF70A
:1011700068FF8948808849F2413188420BD086480F
:10118000808846F60401884205D08348808845F26D
:101190001031884203D12E20FFF706FF0DE07E4874
:1011A000808845F21051884204D14FF43850FFF73F
:1011B000FBFE02E02220FFF7F7FE7748808849F225
:1011C0002031884202D10220FFF734FFFFF7FFFEF3
:1011D0000220FFF72FFFFFF7FAFE02906E4880888B
:1011E00049F2413188420BD06B48808845F210317A
:1011F000884205D06848808845F21051884210D155
:101200000220FFF717FFFFF7E2FE0090BDF808008D
:10121000C0B20190BDF804004FF6FF7101EA002052
:1012200001905D48808849F22531884216D05A489D
:10123000808844F23551884210D057488088091F71
:1012400088420BD0544880884BF20551884205D023
:10125000514880884CF20551884202D1BDF80800FF
:1012600082E74D48808849F2413188420BD04A4894
:10127000808845F21031884205D04748808845F281
:10128000105188420DD1BDF80800C012C002BDF84F
:101290000410891240EA4110BDF8001040EAE12034
:1012A00062E7BDF80800FFF7B8FE5DE700B53A4811
:1012B000808849F2413188420BD03748808846F611
:1012C0000401884205D03448808845F210318842B4
:1012D00003D12920FFF768FE0FE02F48808845F2F0
:1012E0001051884204D14FF42450FFF75DFE04E012
:1012F00040F273110720FFF772FE00BD00B52648CB
:10130000808849F2413188420BD02348808846F6D4
:101310000401884205D02048808845F21031884277
:1013200003D12820FFF740FE0EE01B48808845F2DD
:101330001051884204D14FF42050FFF735FE03E0EE
:1013400000210720FFF74BFE00BD2DE9F0430546C5
:101350000024A14610488079012822D10E488088B7
:1013600046F6040188421CD0082D19D2DFE805F0AA
:101370000406080A0C0E1016062511E007250FE0DA
:1013800004250DE005250BE0012509E0002507E017
:10139000032505E0FEFF0760B4060020022500BF1C
:1013A00000BFFE48808849F24131884211D0FB4895
:1013B000808846F6040188420BD0F848808845F2C0
:1013C0001031884205D0F548808845F21051884296
:1013D00078D1082D1CD2DFE805F00406090C0F12A5
:1013E000151800BF14E044F0800411E044F04004FC
:1013F0000EE044F0C0040BE044F0200408E044F0A8
:10140000600405E044F0A00402E044F0E00400BF02
:1014100000BFE248808845F21051884202D14FF463
:10142000585901E04FF03609DC48808845F2103108
:10143000884207D0D948808845F21051884201D0AF
:1014400044F00804D548808846F60401884201D15A
:1014500044F0020421464846FFF7C1FD04F0200095
:1014600018B9CE48807901280FD1CC480088CB49E3
:101470004988884218DAC948B0F800804088C749CE
:1014800008800846A0F802800EE0C4480088C349DE
:101490004988884208DDC148B0F800804088BF49CB
:1014A00008800846A0F80280BC48807901280AD14B
:1014B000BA48808846F60401884204D0B748468876
:1014C000078803E07AE0B54806884788B3488088F3
:1014D00045F2105188424AD1B0494889FFF764FD6E
:1014E0000020FFF76AFDAD494989491C88B2FFF722
:1014F0005BFD0020FFF761FDA8494989891C88B27E
:10150000FFF752FD711EC1F30F20FFF756FDA349EF
:101510004989C91C88B2FFF747FD711EC8B2FFF7A1
:101520004CFD9E498889FFF73FFD0020FFF745FDF0
:101530009A498989491C88B2FFF736FD0020FFF7D8
:101540003CFD96498989891C88B2FFF72DFD791EDB
:10155000C1F30F20FFF731FD90498989C91C88B27A
:10156000FFF722FD791EC8B2FFF727FD5AE08B492D
:101570004889FFF719FD0020FFF71FFD0020FFF746
:101580001CFD711EC1F30F20FFF717FD711EC8B2BD
:10159000FFF713FD81498889FFF706FD0020FFF75B
:1015A0000CFD0020FFF709FD791EC1F30F20FFF7A6
:1015B00004FD791EC8B2FFF700FD33E0082D1CD2F0
:1015C000DFE805F004070A0D0F12151844F0300487
:1015D00013E044F0100410E044F020040DE000BFDC
:1015E0000BE044F0380408E044F0280405E044F03F
:1015F000180402E044F0080400BF00BF6748808878
:1016000048F68911884205D14FF0110946F2400091
:10161000044303E04FF0030944F480542146484654
:10162000FFF7DDFCBDE8F08330B504460D462946E2
:101630002046FFF706FDFFF7E7FC594800885949A7
:10164000088030BD70B504460D4616465348808864
:1016500049F24131884205D05048808845F2103126
:10166000884214D14D494889FFF79EFC2012FFF7AC
:10167000A4FCE0B2FFF7A1FC48498889FFF794FC7D
:101680002812FFF79AFCE8B2FFF797FC5DE04348A9
:10169000808845F21051884220D140494889FFF79F
:1016A00083FC2012FFF789FC3C494989491C88B218
:1016B000FFF77AFCE0B2FFF780FC38498889FFF732
:1016C00073FC2812FFF779FC34498989491C88B2D8
:1016D000FFF76AFCE8B2FFF770FC36E02F4880881D
:1016E00046F6040188421DD12C488079012804D196
:1016F0002A480088401E001B84B228494889FFF709
:1017000053FC2012FFF759FCE0B2FFF756FC2349C7
:101710008889FFF749FC2812FFF74FFCE8B2FFF772
:101720004CFC12E01D488079012804D11B48008838
:10173000401E001B84B2194948892146FFF74FFC1F
:10174000164988892946FFF74AFC1448008915493B
:10175000891E0880881C068070BD10B50446002CC8
:1017600059D10E498871F02008804FF4A07048804C
:101770000846808849F2413188420BD0074880886A
:1017800046F60401884205D00448808845F21031AD
:10179000884221D12C200149088105E0B4060020AF
:1017A00054020020000008602A2048812B208881F4
:1017B0000846808846F60401884205D0FE488088A5
:1017C00045F21031884206D14FF4A070FA490880E2
:1017D0004FF4F070488079E0F748808845F2105166
:1017E000884210D14FF43050F34908814FF428500B
:1017F00048814FF42C5088814FF4F07008804FF4EA
:101800004870488062E02220EB490881202048810E
:10181000212088815AE00120E74988714FF4A070A7
:101820000880F02048800846808849F2413188428B
:1018300005D0E148808845F21031884207D12C203C
:10184000DD4908812A2048812B2088812BE0DA4855
:10185000808846F60401884207D12C20D6490881A9
:101860002B2048812A2088811DE0D348808845F2BA
:101870001051884210D14FF43050CF4908814FF4B5
:10188000285048814FF42C5088814FF448700880CC
:101890004FF4F070488006E02220C74908812120DB
:1018A000488120208881C448808846F60401884207
:1018B00005D0C148808845F21031884206D14FF4E6
:1018C000F070BD4908804FF4A07048800020FFF7F9
:1018D0003CFD10BD2DE9FF4F04460D4616461F4640
:1018E000A019401E86B2E819401E87B2B24880880F
:1018F00049F2413188420BD0AF48808845F210311F
:10190000884205D0AC48808846F60401884220D140
:10191000A9494889FFF748FB2012FFF74EFBE0B2C8
:10192000FFF74BFB3012FFF748FBF0B2FFF745FB28
:10193000A1498889FFF738FB2812FFF73EFBE8B280
:10194000FFF73BFB3812FFF738FBF8B2FFF735FB28
:101950007DE09948808845F21051884244D19649EB
:101960004889FFF721FB2012FFF727FB924949899D
:10197000491C88B2FFF718FBE0B2FFF71EFB8E4947
:101980004989891C88B2FFF70FFB3012FFF715FB5E
:1019900089494989C91C88B2FFF706FBF0B2FFF7F5
:1019A0000CFB85498889FFF7FFFA2812FFF705FB32
:1019B00081498989491C88B2FFF7F6FAE8B2FFF736
:1019C000FCFA7D498989891C88B2FFF7EDFA381243
:1019D000FFF7F3FA78498989C91C88B2FFF7E4FA5E
:1019E000F8B2FFF7EAFA32E07348807901280ED1A5
:1019F000A846B94670480088801B401E1FFA80FA2E
:101A00006D480088001B401E1FFA80FB03E0A046C3
:101A1000B146AA46BB465020039051200290522066
:101A200001905320009041460398FFF7D8FA4946A9
:101A30000298FFF7D4FA51460198FFF7D0FA5946B9
:101A40000098FFF7CCFA29462046FFF7FAFABDE8DE
:101A5000FF8F70B5044600265748058840884543E7
:101A60005548808846F60401884216D1524880794C
:101A7000012812D10020504988712A2048812B204A
:101A8000888100210846FFF7DCFA01204A49887165
:101A90002B2048812A20888103E000210846FFF797
:101AA000D0FAFFF7B1FA002602E044480480761C21
:101AB000AE42FAD370BD00B5A1B000202090012144
:101AC0001A2007F0ABFA0121084607F0DFFA0220DE
:101AD0001E9001208DF87C0000208DF87E000220F1
:101AE0008DF87D0001208DF87F001EA9344806F096
:101AF00013FD4EF2B3701E9002208DF87C00002082
:101B00008DF87E0003208DF87D0001208DF87F0088
:101B10001EA92C4806F000FD4FF680701E90022092
:101B20008DF87C0000208DF87E0003208DF87D006C
:101B300001208DF87F001EA9234806F0EDFC0C2241
:101B40000021204806F073FD0C2201211D4806F0FB
:101B50006EFD0C2204211B4806F069FD0C220521B4
:101B6000184806F064FD0C220721164806F05FFDB8
:101B70000C220821134806F05AFD0C2209211148B5
:101B800006F055FD0C220A210E4806F050FD0C22ED
:101B90000D210C4806F04BFD0C220E21094806F0E1
:101BA00046FD0C220F21074806F041FD0C220721BB
:101BB000054806F03CFD09E0B4060020000008607E
:101BC00000040240000C0240001002400C220821D8
:101BD000FD4806F02CFD0C220921FB4806F027FDEC
:101BE0000C220A21F84806F022FD0C220B21F648AF
:101BF00006F01DFD0C221146F34806F018FD0C22DC
:101C00000D21F14806F013FD0C220E21EE4806F0DE
:101C10000EFD0C220F21EC4806F009FD0F20089064
:101C2000002009903C200A9000200B900C900D9011
:101C30000E900920019000200290082003900020BF
:101C400004900590069007900F901090119010202E
:101C500012900020139015901490169017904FF446
:101C600080501890002019904FF480401A90002066
:101C70001B9008A81C9001A81D900FA806F02BFD32
:101C80000121002006F0B2FD322006F033F80121D8
:101C90000020FFF7A4F9322006F02CF80020FFF70F
:101CA000A8F9CA49888008468088FF280ADB0846C8
:101CB00080884FF6FF71884204D0C4488088B0F510
:101CC000134F7CD1D320FFF76FF9FFF780F9BF499D
:101CD0008880FFF77CF9BD498880FFF778F9BB4918
:101CE0008880084680884FF6FF7101EA0020B749D6
:101CF0008880FFF76CF9B54989880843B349888023
:101D00000846808849F24131884278D0BF20FFF7E9
:101D10004BF9FFF75CF9AD498880FFF758F9AB49FB
:101D20008880FFF754F9A9498880FFF750F9A7493F
:101D30008880084680884FF6FF7101EA0020A34999
:101D40008880FFF744F9A149898808439F49888022
:101D50000846808846F60401884250D0D420FFF718
:101D600023F9FFF734F999498880FFF730F997494B
:101D70008880FFF72CF995498880084680884FF6BF
:101D8000FF7101EA002091498880FFF720F98F490F
:101D9000898808438D4988800846808845F210313B
:101DA00088422CD04FF45A40FFF7FEF8FFF70FF9A6
:101DB000864988804FF45B40FFF7F6F800E01EE0AC
:101DC000FFF705F981498880084680884FF6FF7142
:101DD00001EA00207D4988804FF45C40FFF7E4F879
:101DE000FFF7F5F8794989880843784988800846DB
:101DF0008088B0F5004F02D145F2105088807348BA
:101E0000808849F2413188420BD07048808845F281
:101E10001031884205D06D48808845F210518842C3
:101E20001DD16B48006820F00F004FF02041C1F831
:101E30001C010846D0F81C0120F47060C1F81C0198
:101E40000846D0F81C0140F00300C1F81C01084608
:101E5000D0F81C0140F40070C1F81C0128E05B4878
:101E6000808846F60401884205D0584880884CF2A4
:101E7000055188421CD15648006820F00F004FF0F1
:101E80002041C1F81C010846D0F81C0120F4706004
:101E9000C1F81C010846D0F81C0140F00A00C1F846
:101EA0001C010846D0F81C0140F44060C1F81C0138
:101EB0004648818847A008F055FC4448808849F28C
:101EC000413188427ED1CF20FFF76EF80020FFF726
:101ED00074F82098401C2090C120FFF76EF8302045
:101EE000FFF76BF8ED20FFF75FF86420FFF765F868
:101EF0000320FFF762F81220FFF75FF88120FFF759
:101F00005CF8E820FFF750F88520FFF756F810201E
:101F1000FFF753F87A20FFF750F8CB20FFF744F88B
:101F20003920FFF74AF82C20FFF747F80020FFF789
:101F300044F83420FFF741F80220FFF73EF8F7207D
:101F4000FFF732F82020FFF738F8EA20FFF72CF8E7
:101F50000020FFF732F80020FFF72FF8C020FFF72E
:101F600023F81B20FFF729F8C120FFF71DF80120F7
:101F7000FFF723F8C520FFF717F83020FFF71DF80B
:101F80003020FFF71AF8C720FFF70EF8B720FFF749
:101F900014F83620FFF708F84820FFF70EF83A202B
:101FA000FFF702F85520FFF708F8B120FEF7FCFF15
:101FB0000020FFF702F81A20FEF7FFFFB620FEF719
:101FC000F3FF0FE0A9E0000000100240B40600207B
:101FD0001C0100A0204C43442049443A25780D0AB6
:101FE000000000000A20FEF7E8FFA220FEF7E5FF50
:101FF000F220FEF7D9FF0020FEF7DFFF2620FEF7D4
:10200000D3FF0120FEF7D9FFE020FEF7CDFF0F2020
:10201000FEF7D3FF2A20FEF7D0FF2820FEF7CDFFE2
:102020000820FEF7CAFF0E20FEF7C7FF0820FEF7C4
:10203000C4FF5420FEF7C1FFA920FEF7BEFF4320D6
:10204000FEF7BBFF0A20FEF7B8FF0F20FEF7B5FF33
:102050000020FEF7B2FF0020FEF7AFFF0020FEF7E2
:10206000ACFF0020FEF7A9FFE120FEF79DFF002056
:10207000FEF7A3FF1520FEF7A0FF1720FEF79DFF38
:102080000720FEF79AFF1120FEF797FF0620FEF7C4
:1020900094FF2B20FEF791FF5620FEF78EFF3C2089
:1020A000FEF78BFF0520FEF788FF1020FEF785FF67
:1020B0000F20FEF782FF3F20FEF77FFF3F20FEF755
:1020C0007CFF0F20FEF779FF2B20FEF76DFF00202D
:1020D000FEF773FF0020FEF770FF0120FEF76DFF93
:1020E0003F20FEF76AFF2A20FEF75EFF0020FEF782
:1020F00064FF0020FEF761FF0020FEF75EFFEF2087
:10210000FEF75BFF1120FEF74FFF782005F0F2FD90
:102110002920FEF749FF03F05CB8FE48808846F6A8
:10212000040188427ED11120FEF73EFF142005F005
:10213000E1FDD020FEF738FF0720FEF73EFF4220EA
:10214000FEF73BFF1D20FEF738FFD120FEF72CFFE6
:102150000020FEF732FF1A20FEF72FFF0920FEF7BE
:102160002CFFD220FEF720FF0120FEF726FF2220C1
:10217000FEF723FFC020FEF717FF1020FEF71DFF1C
:102180003B20FEF71AFF0020FEF717FF0220FEF7A4
:1021900014FF1120FEF711FFC520FEF705FF0320F5
:1021A000FEF70BFFC820FEF7FFFE0020FEF705FF3D
:1021B0002520FEF702FF2120FEF7FFFE0520FEF797
:1021C000FCFE0020FEF7F9FE0A20FEF7F6FE652071
:1021D000FEF7F3FE2520FEF7F0FE7720FEF7EDFE7A
:1021E0005020FEF7EAFE0F20FEF7E7FE0020FEF784
:1021F000E4FEF820FEF7D8FE0120FEF7DEFEFE200A
:10220000FEF7D2FE0020FEF7D8FE0220FEF7D5FE34
:102210002020FEF7C9FE3620FEF7C6FE0820FEF796
:10222000CCFE00E02AE03A20FEF7BEFE5520FEF785
:10223000C4FE2B20FEF7B8FE0020FEF7BEFE0020F5
:10224000FEF7BBFE0120FEF7B8FE3F20FEF7B5FE0D
:102250002A20FEF7A9FE0020FEF7AFFE0020FEF7C1
:10226000ACFE0120FEF7A9FEDF20FEF7A6FE7820D7
:1022700005F040FD2920FEF797FE4CE7A548808831
:1022800045F21031884240F07C87ED20FEF78CFE4D
:102290000120FEF792FEFE20FEF78FFEEE20FEF7F5
:1022A00083FEDE20FEF789FE2120FEF786FEF12068
:1022B000FEF77AFE0120FEF780FEDF20FEF774FEB7
:1022C0001020FEF77AFEC420FEF76EFE8F20FEF788
:1022D00074FEC620FEF768FE0020FEF76EFEE220C8
:1022E000FEF76BFEE220FEF768FEE220FEF765FED9
:1022F000BF20FEF759FEAA20FEF75FFEB020FEF7D2
:1023000053FE0D20FEF759FE0020FEF756FE0D206D
:10231000FEF753FE0020FEF750FE1120FEF74DFEA3
:102320000020FEF74AFE1920FEF747FE0020FEF7C8
:1023300044FE2120FEF741FE0020FEF73EFE2D2048
:10234000FEF73BFE0020FEF738FE3D20FEF735FE8F
:102350000020FEF732FE5D20FEF72FFE0020FEF784
:102360002CFE5D20FEF729FE0020FEF726FEB120A0
:10237000FEF71AFE8020FEF720FE0020FEF71DFE6D
:102380008B20FEF71AFE0020FEF717FE9620FEF7C0
:1023900014FE0020FEF711FEB220FEF705FE00201D
:1023A000FEF70BFE0020FEF708FE0220FEF705FEFA
:1023B0000020FEF702FE0320FEF7FFFD0020FEF7DF
:1023C000FCFDB320FEF7F0FD0020FEF7F6FD002037
:1023D000FEF7F3FD0020FEF7F0FD0020FEF7EDFD17
:1023E0000020FEF7EAFD0020FEF7E7FD0020FEF7E3
:1023F000E4FD0020FEF7E1FD0020FEF7DEFD0020F9
:10240000FEF7DBFD0020FEF7D8FD0020FEF7D5FD2E
:102410000020FEF7D2FD0020FEF7CFFD0020FEF7E2
:10242000CCFD0020FEF7C9FD0020FEF7C6FD002010
:10243000FEF7C3FD0020FEF7C0FD0020FEF7BDFD46
:102440000020FEF7BAFD0020FEF7B7FD0020FEF7E2
:10245000B4FD0020FEF7B1FDB420FEF7A5FD8B20F2
:10246000FEF7ABFD0020FEF7A8FD9620FEF7A5FDC8
:102470000020FEF7A2FDA120FEF79FFD0020FEF741
:102480009CFDB520FEF790FD0220FEF796FD002092
:10249000FEF793FD0320FEF790FD0020FEF78DFD73
:1024A0000420FEF78AFD0020FEF787FDB620FEF728
:1024B0007BFD0020FEF781FD0020FEF77EFDB720AA
:1024C000FEF772FD0020FEF778FD0020FEF775FD97
:1024D0003F20FEF772FD0020FEF76FFD5E20FEF745
:1024E0006CFD0020FEF769FD6420FEF766FD00200C
:1024F000FEF763FD8C20FEF760FD0020FEF75DFD1A
:10250000AC20FEF75AFD0020FEF757FDDC20FEF759
:1025100054FD01E0B40600200020FEF74EFD7020BF
:10252000FEF74BFD0020FEF748FD9020FEF745FD2D
:102530000020FEF742FDEB20FEF73FFD0020FEF7F6
:102540003CFDDC20FEF739FD0020FEF736FDB8200B
:10255000FEF72AFD0020FEF730FD0020FEF72DFDDE
:102560000020FEF72AFD0020FEF727FD0020FEF7E1
:1025700024FD0020FEF721FD0020FEF71EFD0020B7
:10258000FEF71BFDBA20FEF70FFD2420FEF715FD18
:102590000020FEF712FD0020FEF70FFD0020FEF7E1
:1025A0000CFDC120FEF700FD2020FEF706FD0020F7
:1025B000FEF703FD5420FEF700FD0020FEF7FDFCB2
:1025C000FF20FEF7FAFC0020FEF7F7FCC220FEF722
:1025D000EBFC0A20FEF7F1FC0020FEF7EEFC0420E5
:1025E000FEF7EBFC0020FEF7E8FCC320FEF7DCFC66
:1025F0003C20FEF7E2FC0020FEF7DFFC3A20FEF76D
:10260000DCFC0020FEF7D9FC3920FEF7D6FC0020C8
:10261000FEF7D3FC3720FEF7D0FC0020FEF7CDFC00
:102620003C20FEF7CAFC0020FEF7C7FC3620FEF770
:10263000C4FC0020FEF7C1FC3220FEF7BEFC0020E7
:10264000FEF7BBFC2F20FEF7B8FC0020FEF7B5FC20
:102650002C20FEF7B2FC0020FEF7AFFC2920FEF78D
:10266000ACFC0020FEF7A9FC2620FEF7A6FC00200B
:10267000FEF7A3FC2420FEF7A0FC0020FEF79DFC43
:102680002420FEF79AFC0020FEF797FC2320FEF79B
:1026900094FC0020FEF791FC3C20FEF78EFC00200D
:1026A000FEF78BFC3620FEF788FC0020FEF785FC49
:1026B0003220FEF782FC0020FEF77FFC2F20FEF781
:1026C0007CFC0020FEF779FC2C20FEF776FC002035
:1026D000FEF773FC2920FEF770FC0020FEF76DFC6E
:1026E0002620FEF76AFC0020FEF767FC2420FEF798
:1026F00064FC0020FEF761FC2420FEF75EFC002055
:10270000FEF75BFC2320FEF758FC0020FEF755FC8B
:10271000C420FEF749FC6220FEF74FFC0020FEF7C4
:102720004CFC0520FEF749FC0020FEF746FC842007
:10273000FEF743FC0020FEF740FCF020FEF73DFCD6
:102740000020FEF73AFC1820FEF737FC0020FEF7C9
:1027500034FCA420FEF731FC0020FEF72EFC1820EC
:10276000FEF72BFC0020FEF728FC5020FEF725FC8E
:102770000020FEF722FC0C20FEF71FFC0020FEF7D5
:102780001CFC1720FEF719FC0020FEF716FC952014
:10279000FEF713FC0020FEF710FCF320FEF70DFC03
:1027A0000020FEF70AFCE620FEF707FC0020FEF7FB
:1027B00004FCC520FEF7F8FB3220FEF7FEFB0020EC
:1027C000FEF7FBFB4420FEF7F8FB0020FEF7F5FBCD
:1027D0006520FEF7F2FB0020FEF7EFFB7620FEF708
:1027E000ECFB0020FEF7E9FB8820FEF7E6FB00206B
:1027F000FEF7E3FBC620FEF7D7FB2020FEF7DDFB4C
:102800000020FEF7DAFB1720FEF7D7FB0020FEF7CB
:10281000D4FB0120FEF7D1FB0020FEF7CEFBC72042
:10282000FEF7C2FB0020FEF7C8FB0020FEF7C5FB49
:102830000020FEF7C2FB0020FEF7BFFBC820FEF71A
:10284000B3FB0020FEF7B9FB0020FEF7B6FB00202B
:10285000FEF7B3FB0020FEF7B0FBC920FEF7A4FB98
:102860000020FEF7AAFB0020FEF7A7FB0020FEF7E2
:10287000A4FB0020FEF7A1FB0020FEF79EFB00203A
:10288000FEF79BFB0020FEF798FB0020FEF795FB70
:102890000020FEF792FB0020FEF78FFB0020FEF7E2
:1028A0008CFB0020FEF789FB0020FEF786FB002052
:1028B000FEF783FB0020FEF780FB0020FEF77DFB88
:1028C000E020FEF771FB1620FEF777FB0020FEF7F5
:1028D00074FB1C20FEF771FB0020FEF76EFB21202D
:1028E000FEF76BFB0020FEF768FB3620FEF765FB6A
:1028F0000020FEF762FB4620FEF75FFB0020FEF79C
:102900005CFB5220FEF759FB0020FEF756FB6420CB
:10291000FEF753FB0020FEF750FB7A20FEF74DFB3D
:102920000020FEF74AFB8B20FEF747FB0020FEF756
:1029300044FB9920FEF741FB0020FEF73EFBA82058
:10294000FEF73BFB0020FEF738FBB920FEF735FB16
:102950000020FEF732FBC420FEF72FFB0020FEF71D
:102960002CFBCA20FEF729FB0020FEF726FBD22015
:10297000FEF723FB0020FEF720FBD920FEF71DFB0E
:102980000020FEF71AFBE020FEF717FB0020FEF701
:1029900014FBF320FEF711FB0020FEF70EFBE120F5
:1029A000FEF702FB1620FEF708FB0020FEF705FBF2
:1029B0001C20FEF702FB0020FEF7FFFA2220FEF7A4
:1029C000FCFA0020FEF7F9FA3620FEF7F6FA0020AE
:1029D000FEF7F3FA4520FEF7F0FA0020FEF7EDFAD5
:1029E0005220FEF7EAFA0020FEF7E7FA6420FEF72D
:1029F000E4FA0020FEF7E1FA7A20FEF7DEFA002082
:102A0000FEF7DBFA8B20FEF7D8FA0020FEF7D5FAA6
:102A10009920FEF7D2FA0020FEF7CFFAA820FEF7A1
:102A2000CCFA0020FEF7C9FAB920FEF7C6FA00205A
:102A3000FEF7C3FAC420FEF7C0FA0020FEF7BDFA85
:102A4000CA20FEF7BAFA0020FEF7B7FAD220FEF746
:102A5000B4FA0020FEF7B1FAD820FEF7AEFA002053
:102A6000FEF7ABFAE020FEF7A8FA0020FEF7A5FA81
:102A7000F320FEF7A2FA0020FEF79FFAE220FEF70D
:102A800093FA0520FEF799FA0020FEF796FA0B203C
:102A9000FEF793FA0020FEF790FA1B20FEF78DFA5E
:102AA0000020FEF78AFA3420FEF787FA0020FEF7AE
:102AB00084FA4420FEF781FA0020FEF77EFA4F20C8
:102AC000FEF77BFA0020FEF778FA6120FEF775FA30
:102AD0000020FEF772FA7920FEF76FFA0020FEF769
:102AE0006CFA8820FEF769FA0020FEF766FA972054
:102AF000FEF763FA0020FEF760FAA620FEF75DFA03
:102B00000020FEF75AFAB720FEF757FA0020FEF72A
:102B100054FAC220FEF751FA0020FEF74EFAC72001
:102B2000FEF74BFA0020FEF748FAD120FEF745FAEF
:102B30000020FEF742FAD620FEF73FFA0020FEF70B
:102B40003CFADD20FEF739FA0020FEF736FAF320D2
:102B5000FEF733FA0020FEF730FAE320FEF724FAFE
:102B60000520FEF72AFA0020FEF727FA0A20FEF7D2
:102B700024FA0020FEF721FA1C20FEF71EFA00209E
:102B8000FEF71BFA3320FEF718FA0020FEF715FABD
:102B90004420FEF712FA0020FEF70FFA5020FEF74D
:102BA0000CFA0020FEF709FA6220FEF706FA002070
:102BB000FEF703FA7820FEF700FA0020FEF7FDF991
:102BC0008820FEF7FAF90020FEF7F7F99720FEF7C4
:102BD000F4F90020FEF7F1F9A620FEF7EEF9002047
:102BE000FEF7EBF9B720FEF7E8F90020FEF7E5F96C
:102BF000C220FEF7E2F90020FEF7DFF9C720FEF75A
:102C0000DCF90020FEF7D9F9D120FEF7D6F9002033
:102C1000FEF7D3F9D520FEF7D0F90020FEF7CDF965
:102C2000DD20FEF7CAF90020FEF7C7F9F320FEF712
:102C3000C4F90020FEF7C1F9E420FEF7B5F9012040
:102C4000FEF7BBF90020FEF7B8F90120FEF7B5F951
:102C50000020FEF7B2F90220FEF7AFF90020FEF7E0
:102C6000ACF92A20FEF7A9F90020FEF7A6F93C20CE
:102C7000FEF7A3F90020FEF7A0F94B20FEF79DF91F
:102C80000020FEF79AF95D20FEF797F90020FEF785
:102C900094F97420FEF791F90020FEF78EF9842054
:102CA000FEF78BF90020FEF788F99320FEF785F9EF
:102CB0000020FEF782F9A220FEF77FF90020FEF740
:102CC0007CF9B320FEF779F90020FEF776F9BE20F3
:102CD000FEF773F90020FEF770F9C420FEF76DF9D6
:102CE0000020FEF76AF9CD20FEF767F90020FEF715
:102CF00064F9D320FEF761F90020FEF75EF9DD20CC
:102D0000FEF75BF90020FEF758F9F320FEF755F9BE
:102D10000020FEF752F9E520FEF746F90020FEF705
:102D20004CF90020FEF749F90020FEF746F9002093
:102D3000FEF743F90220FEF740F90020FEF73DF9C7
:102D40002920FEF73AF90020FEF737F93C20FEF77C
:102D500034F90020FEF731F94B20FEF72EF9002060
:102D6000FEF72BF95D20FEF728F90020FEF725F984
:102D70007420FEF722F90020FEF71FF98420FEF7E9
:102D80001CF90020FEF719F99320FEF716F9002030
:102D9000FEF713F9A220FEF710F90020FEF70DF957
:102DA000B320FEF70AF90020FEF707F9BE20FEF770
:102DB00004F90020FEF701F9C420FEF7FEF8002018
:102DC000FEF7FBF8CD20FEF7F8F80020FEF7F5F847
:102DD000D320FEF7F2F80020FEF7EFF8DC20FEF734
:102DE000ECF80020FEF7E9F8F320FEF7E6F8002003
:102DF000FEF7E3F8E620FEF7D7F81120FEF7DDF83E
:102E00000020FEF7DAF83420FEF7D7F80020FEF7AE
:102E1000D4F85620FEF7D1F80020FEF7CEF8762041
:102E2000FEF7CBF80020FEF7C8F87720FEF7C5F8CC
:102E30000020FEF7C2F86620FEF7BFF80020FEF77C
:102E4000BCF88820FEF7B9F80020FEF7B6F8992004
:102E5000FEF7B3F80020FEF7B0F8BB20FEF7ADF8A0
:102E60000020FEF7AAF89920FEF7A7F80020FEF749
:102E7000A4F86620FEF7A1F80020FEF79EF8552082
:102E8000FEF79BF80020FEF798F85520FEF795F81E
:102E90000020FEF792F84520FEF78FF80020FEF79D
:102EA0008CF84320FEF789F80020FEF786F84420CE
:102EB000FEF783F80020FEF780F8E720FEF774F8AD
:102EC0003220FEF77AF80020FEF777F85520FEF75B
:102ED00074F80020FEF771F87620FEF76EF80020F7
:102EE000FEF76BF86620FEF768F80020FEF765F83D
:102EF0006720FEF762F80020FEF75FF86720FEF714
:102F00005CF80020FEF759F88720FEF756F80020FD
:102F1000FEF753F89920FEF750F80020FEF74DF821
:102F2000BB20FEF74AF80020FEF747F89920FEF78D
:102F300044F80020FEF741F87720FEF73EF8002025
:102F4000FEF73BF84420FEF738F80020FEF735F88E
:102F50005620FEF732F80020FEF72FF82320FEF768
:102F60002CF80020FEF729F83320FEF726F8002081
:102F7000FEF723F84520FEF720F80020FEF71DF8A5
:102F8000E820FEF711F80020FEF717F80020FEF702
:102F900014F89920FEF711F80020FEF70EF88720AC
:102FA000FEF70BF80020FEF708F88820FEF705F87A
:102FB0000020FEF702F87720FDF7FFFF0020FDF765
:102FC000FCFF6620FDF7F9FF0020FDF7F6FF8820E3
:102FD000FDF7F3FF0020FDF7F0FFAA20FDF7EDFF5E
:102FE0000020FDF7EAFFBB20FDF7E7FF0020FDF71B
:102FF000E4FF9920FDF7E1FF0020FDF7DEFF6620EA
:10300000FDF7DBFF0020FDF7D8FF5520FDF7D5FFCA
:103010000020FDF7D2FF5520FDF7CFFF0020FDF780
:10302000CCFF4420FDF7C9FF0020FDF7C6FF442078
:10303000FDF7C3FF0020FDF7C0FF5520FDF7BDFFE2
:103040000020FDF7BAFFE920FDF7AEFFAA20FDF74B
:10305000B4FF0020FDF7B1FF0020FDF7AEFF002018
:10306000FDF7ABFF0020FDF79FFFAA20FDF7A5FFAE
:10307000CF20FDF799FF0020FDF79FFF0020FDF70F
:103080009CFF0020FDF799FF0020FDF796FF002030
:10309000FDF793FF0020FDF790FF0020FDF78DFF67
:1030A0000020FDF78AFF0020FDF787FF0020FDF7D5
:1030B00084FF0020FDF781FF0020FDF77EFF002048
:1030C000FDF77BFF0020FDF778FF0020FDF775FF7F
:1030D0000020FDF772FF0020FDF76FFFF020FDF7E5
:1030E00063FF0020FDF769FF5020FDF766FF002019
:1030F000FDF763FF0020FDF760FF0020FDF75DFF97
:10310000F320FDF751FF0020FDF757FFF920FDF7F1
:103110004BFF0620FDF751FF1020FDF74EFF292041
:10312000FDF74BFF0020FDF748FF3A20FDF73CFF7D
:103130005520FDF742FF1120FDF736FF642004F013
:10314000D9FD2920FDF730FF3520FDF72DFF0020A8
:10315000FDF733FF5120FDF727FFFF20FDF72DFF7F
:103160005320FDF721FF2C20FDF727FF5520FDF709
:103170001BFF8220FDF721FF2C20FDF715FF02F039
:1031800028B8FE48808845F2105188427ED15521EA
:103190004FF47040FDF723FFAA214FF20100FDF725
:1031A0001EFF52214FF20200FDF719FF08214FF2D6
:1031B0000300FDF714FF01214FF20400FDF70FFF9C
:1031C0000D214FF43040FDF70AFF0D214BF20100B5
:1031D000FDF705FF0D214BF20200FDF700FF342142
:1031E0004FF43640FDF7FBFE34214BF20160FDF752
:1031F000F6FE34214BF20260FDF7F1FE0D214FF493
:103200003140FDF7ECFE0D214BF20110FDF7E7FE1A
:103210000D214BF20210FDF7E2FE34214FF437404E
:10322000FDF7DDFE34214BF20170FDF7D8FE3421AD
:103230004BF20270FDF7D3FE00214FF43240FDF750
:10324000CEFE00214BF20120FDF7C9FE00214BF21A
:103250000220FDF7C4FE24214FF43840FDF7BFFEE5
:1032600024214BF60100FDF7BAFE24214BF60200A3
:10327000FDF7B5FE01214FF43F40FDF7B0FE0F21F1
:103280004FF43340FDF7ABFE0F2100E0FEE34BF2BD
:103290000130FDF7A4FE0F214BF20230FDF79FFE37
:1032A00034214FF43940FDF79AFE34214BF60110DA
:1032B000FDF795FE34214BF60210FDF790FE082134
:1032C0004FF43540FDF78BFE08214BF20150FDF71E
:1032D00086FE08214BF20250FDF781FE03214FF4D8
:1032E0004240FDF77CFE24214FF43A40FDF777FE83
:1032F00024214BF60120FDF772FE24214BF602201B
:10330000FDF76DFE00214FF43C40FDF768FE78218B
:103310004BF60140FDF763FE00214BF60240FDF73E
:103320005EFE00214FF43D40FDF759FE78214BF63B
:103330000150FDF754FE00214BF60250FDF74FFE01
:1033400000214FF43E40FDF74AFE64214BF6016038
:10335000FDF745FE00214FF45140FDF740FE3321BB
:103360004DF20110FDF73BFE00214DF20210FDF77A
:1033700036FE34214DF20310FDF731FE00214DF2EF
:103380000410FDF72CFE3A214DF20510FDF727FE43
:1033900000214DF20610FDF722FE4A214DF20710E2
:1033A000FDF71DFE00214DF20810FDF718FE5C210F
:1033B0004DF20910FDF713FE00214DF20A10FDF742
:1033C0000EFE81214DF20B10FDF709FE00214DF29A
:1033D0000C10FDF704FEA6214DF20D10FDF7FFFDC8
:1033E00000214DF20E10FDF7FAFDE5214DF20F1010
:1033F000FDF7F5FD01214DF21010FDF7F0FD132151
:103400004DF21110FDF7EBFD01214DF21210FDF709
:10341000E6FD54214DF21310FDF7E1FD01214DF2BF
:103420001410FDF7DCFD82214DF21510FDF7D7FDDC
:1034300001214DF21610FDF7D2FDCA214DF21710F1
:10344000FDF7CDFD02214DF21810FDF7C8FD00215A
:103450004DF21910FDF7C3FD02214DF21A10FDF7D0
:10346000BEFD01214DF21B10FDF7B9FD02214DF209
:103470001C10FDF7B4FD34214DF21D10FDF7AFFD1A
:1034800002214DF21E10FDF7AAFD67214DF21F101B
:10349000FDF7A5FD02214DF22010FDF7A0FD8421CE
:1034A0004DF22110FDF79BFD02214DF22210FDF798
:1034B00096FDA4214DF22310FDF791FD02214DF25E
:1034C0002410FDF78CFDB7214DF22510FDF787FD87
:1034D00002214DF22610FDF782FDCF214DF227107B
:1034E000FDF77DFD02214DF22810FDF778FDDE216C
:1034F0004DF22910FDF773FD02214DF22A10FDF760
:103500006EFDF2214DF22B10FDF769FD02214DF207
:103510002C10FDF764FDFE214DF22D10FDF75FFD2F
:1035200003214DF22E10FDF75AFD10214DF22F1000
:10353000FDF755FD03214DF23010FDF750FD33210D
:103540004DF23110FDF74BFD03214DF23210FDF726
:1035500046FD6D214DF23310FDF741FD00214FF482
:103560005240FDF73CFD33214DF20120FDF737FDC0
:1035700000214DF20220FDF732FD01E0B4060020EB
:1035800034214DF20320FDF72AFD00214DF20420E5
:10359000FDF725FD3A214DF20520FDF720FD002124
:1035A0004DF20620FDF71BFD4A214DF20720FDF7E5
:1035B00016FD00214DF20820FDF711FD5C214DF2B2
:1035C0000920FDF70CFD00214DF20A20FDF707FD53
:1035D00081214DF20B20FDF702FD00214DF20C2060
:1035E000FDF7FDFCA6214DF20D20FDF7F8FC0021B2
:1035F0004DF20E20FDF7F3FCE5214DF20F20FDF713
:10360000EEFC01214DF21020FDF7E9FC13214DF2F3
:103610001120FDF7E4FC01214DF21220FDF7DFFC43
:1036200054214DF21320FDF7DAFC01214DF2142054
:10363000FDF7D5FC82214DF21520FDF7D0FC0121CC
:103640004DF21620FDF7CBFCCA214DF21720FDF7F5
:10365000C6FC02214DF21820FDF7C1FC00214DF2FD
:103660001920FDF7BCFC02214DF21A20FDF7B7FC32
:1036700001214DF21B20FDF7B2FC02214DF21C206E
:10368000FDF7ADFC34214DF21D20FDF7A8FC022111
:103690004DF21E20FDF7A3FC67214DF21F20FDF720
:1036A0009EFC02214DF22020FDF799FC84214DF271
:1036B0002120FDF794FC02214DF22220FDF78FFC22
:1036C000A4214DF22320FDF78AFC02214DF2242093
:1036D000FDF785FCB7214DF22520FDF780FC022186
:1036E0004DF22620FDF77BFCCF214DF22720FDF780
:1036F00076FC02214DF22820FDF771FCDE214DF20F
:103700002920FDF76CFC02214DF22A20FDF767FC11
:10371000F2214DF22B20FDF762FC02214DF22C200C
:10372000FDF75DFCFE214DF22D20FDF758FC032135
:103730004DF22E20FDF753FC10214DF22F20FDF706
:103740004EFC03214DF23020FDF749FC33214DF2B0
:103750003120FDF744FC03214DF23220FDF73FFC00
:103760006D214DF23320FDF73AFC00214FF4534018
:10377000FDF735FC33214DF20130FDF730FC00211F
:103780004DF20230FDF72BFC34214DF20330FDF7F2
:1037900026FC00214DF20430FDF721FC3A214DF2C8
:1037A0000530FDF71CFC00214DF20630FDF717FC3B
:1037B0004A214DF20730FDF712FC00214DF208308E
:1037C000FDF70DFC5C214DF20930FDF708FC0021EE
:1037D0004DF20A30FDF703FC81214DF20B30FDF76D
:1037E000FEFB00214DF20C30FDF7F9FBA6214DF256
:1037F0000D30FDF7F4FB00214DF20E30FDF7EFFB2D
:10380000E5214DF20F30FDF7EAFB01214DF21030BA
:10381000FDF7E5FB13214DF21130FDF7E0FB01212F
:103820004DF21230FDF7DBFB54214DF21330FDF762
:10383000D6FB01214DF21430FDF7D1FB82214DF270
:103840001530FDF7CCFB01214DF21630FDF7C7FB1B
:10385000CA214DF21730FDF7C2FB02214DF218309C
:10386000FDF7BDFB00214DF21930FDF7B8FB022139
:103870004DF21A30FDF7B3FB01214DF21B30FDF77D
:10388000AEFB02214DF21C30FDF7A9FB34214DF2B5
:103890001D30FDF7A4FB02214DF21E30FDF79FFB0A
:1038A00067214DF21F30FDF79AFB02214DF22030C7
:1038B000FDF795FB84214DF22130FDF790FB0221AD
:1038C0004DF22230FDF78BFBA4214DF22330FDF7A2
:1038D00086FB02214DF22430FDF781FBB7214DF22A
:1038E0002530FDF77CFB02214DF22630FDF777FBFA
:1038F000CF214DF22730FDF772FB02214DF2283027
:10390000FDF76DFBDE214DF22930FDF768FB02214A
:103910004DF22A30FDF763FBF2214DF22B30FDF71B
:103920005EFB02214DF22C30FDF759FBFE214DF2DA
:103930002D30FDF754FB03214DF22E30FDF74FFBE8
:1039400010214DF22F30FDF74AFB03214DF23030AC
:10395000FDF745FB33214DF23130FDF740FB0321EC
:103960004DF23230FDF73BFB6D214DF23330FDF768
:1039700036FB00214FF45440FDF731FB33214DF26B
:103980000140FDF72CFB00214DF20240FDF727FB23
:1039900034214DF20340FDF722FB00214DF204409B
:1039A000FDF71DFB3A214DF20540FDF718FB002104
:1039B0004DF20640FDF713FB4A214DF20740FDF79B
:1039C0000EFB00214DF20840FDF709FB5C214DF292
:1039D0000940FDF704FB00214DF20A40FDF7FFFA14
:1039E00081214DF20B40FDF7FAFA00214DF20C4017
:1039F000FDF7F5FAA6214DF20D40FDF7F0FA002192
:103A00004DF20E40FDF7EBFAE5214DF20F40FDF7C8
:103A1000E6FA01214DF21040FDF7E1FA13214DF2D3
:103A20001140FDF7DCFA01214DF21240FDF7D7FA03
:103A300054214DF21340FDF7D2FA01214DF214400A
:103A4000FDF7CDFA82214DF21540FDF7C8FA0121AC
:103A50004DF21640FDF7C3FACA214DF21740FDF7AB
:103A6000BEFA02214DF21840FDF7B9FA00214DF2DD
:103A70001940FDF7B4FA02214DF21A40FDF7AFFAF2
:103A800001214DF21B40FDF7AAFA00E004E30221F8
:103A90004DF21C40FDF7A3FA34214DF21D40FDF715
:103AA0009EFA02214DF21E40FDF799FA67214DF270
:103AB0001F40FDF794FA02214DF22040FDF78FFAE6
:103AC00084214DF22140FDF78AFA02214DF2224075
:103AD000FDF785FAA4214DF22340FDF780FA02217B
:103AE0004DF22440FDF77BFAB7214DF22540FDF75A
:103AF00076FA02214DF22640FDF771FACF214DF200
:103B00002740FDF76CFA02214DF22840FDF767FAD5
:103B1000DE214DF22940FDF762FA02214DF22A40E2
:103B2000FDF75DFAF2214DF22B40FDF758FA022124
:103B30004DF22C40FDF753FAFE214DF22D40FDF7DA
:103B40004EFA03214DF22E40FDF749FA10214DF2B5
:103B50002F40FDF744FA03214DF23040FDF73FFAC4
:103B600033214DF23140FDF73AFA03214DF2324054
:103B7000FDF735FA6D214DF23340FDF730FA0021A3
:103B80004FF45540FDF72BFA33214DF20150FDF76C
:103B900026FA00214DF20250FDF721FA34214DF2B0
:103BA0000350FDF71CFA00214DF20450FDF717FAFF
:103BB0003A214DF20550FDF712FA00214DF2065060
:103BC000FDF70DFA4A214DF20750FDF708FA0021E2
:103BD0004DF20850FDF703FA5C214DF20950FDF754
:103BE000FEF900214DF20A50FDF7F9F981214DF25D
:103BF0000B50FDF7F4F900214DF20C50FDF7EFF9F1
:103C0000A6214DF20D50FDF7EAF900214DF20E50BC
:103C1000FDF7E5F9E5214DF20F50FDF7E0F901213F
:103C20004DF21050FDF7DBF913214DF21150FDF765
:103C3000D6F901214DF21250FDF7D1F954214DF280
:103C40001350FDF7CCF901214DF21450FDF7C7F9DF
:103C500082214DF21550FDF7C2F901214DF21650A7
:103C6000FDF7BDF9CA214DF21750FDF7B8F9022151
:103C70004DF21850FDF7B3F900214DF21950FDF740
:103C8000AEF902214DF21A50FDF7A9F901214DF2CA
:103C90001B50FDF7A4F902214DF21C50FDF79FF9CE
:103CA00034214DF21D50FDF79AF902214DF21E50BC
:103CB000FDF795F967214DF21F50FDF790F90221AC
:103CC0004DF22050FDF78BF984214DF22150FDF784
:103CD00086F902214DF22250FDF781F9A4214DF21F
:103CE0002350FDF77CF902214DF22450FDF777F9BE
:103CF000B7214DF22550FDF772F902214DF2265001
:103D0000FDF76DF9CF214DF22750FDF768F902213B
:103D10004DF22850FDF763F9DE214DF22950FDF7F1
:103D20005EF902214DF22A50FDF759F9F2214DF2C8
:103D30002B50FDF754F902214DF22C50FDF74FF9AD
:103D4000FE214DF22D50FDF74AF903214DF22E5080
:103D5000FDF745F910214DF22F50FDF740F90321F1
:103D60004DF23050FDF73BF933214DF23150FDF764
:103D700036F903214DF23250FDF731F96D214DF244
:103D80003350FDF72CF900214FF45640FDF727F989
:103D900033214DF20160FDF722F900214DF202605E
:103DA000FDF71DF934214DF20360FDF718F90021EC
:103DB0004DF20460FDF713F93A214DF20560FDF76D
:103DC0000EF900214DF20660FDF709F94A214DF286
:103DD0000760FDF704F900214DF20860FDF7FFF8D8
:103DE0005C214DF20960FDF7FAF800214DF20A60FE
:103DF000FDF7F5F881214DF20B60FDF7F0F8002199
:103E00004DF20C60FDF7EBF8A6214DF20D60FDF7C9
:103E1000E6F800214DF20E60FDF7E1F8E5214DF2E4
:103E20000F60FDF7DCF801214DF21060FDF7D7F8C7
:103E300013214DF21160FDF7D2F801214DF212600D
:103E4000FDF7CDF854214DF21360FDF7C8F80121BC
:103E50004DF21460FDF7C3F882214DF21560FDF7B5
:103E6000BEF801214DF21660FDF7B9F8CA214DF2F6
:103E70001760FDF7B4F802214DF21860FDF7AFF8B6
:103E800000214DF21960FDF7AAF802214DF21A60E7
:103E9000FDF7A5F801214DF21B60FDF7A0F8022106
:103EA0004DF21C60FDF79BF834214DF21D60FDF7CB
:103EB00096F802214DF21E60FDF791F867214DF250
:103EC0001F60FDF78CF802214DF22060FDF787F8A6
:103ED00084214DF22160FDF782F802214DF222602B
:103EE000FDF77DF8A4214DF22360FDF778F802215B
:103EF0004DF22460FDF773F8B7214DF22560FDF710
:103F00006EF802214DF22660FDF769F8CF214DF2DF
:103F10002760FDF764F802214DF22860FDF75FF895
:103F2000DE214DF22960FDF75AF802214DF22A6098
:103F3000FDF755F8F2214DF22B60FDF750F8022104
:103F40004DF22C60FDF74BF8FE214DF22D60FDF790
:103F500046F803214DF22E60FDF741F810214DF295
:103F60002F60FDF73CF803214DF23060FDF737F884
:103F700033214DF23160FDF732F803214DF232600A
:103F8000FDF72DF86D214DF23360FDF728F855212E
:103F90004FF47040FDF723F8AA214FF20100FDF71E
:103FA0001EF852214FF20200FDF719F808214FF2D6
:103FB0000300FDF714F800214FF20400FDF70FF89D
:103FC000CC214FF43140FDF70AF800214BF20110EB
:103FD000FDF705F805214FF43640FDF700F8702194
:103FE0004FF43740FCF7FBFF70214BF20170FCF7F8
:103FF000F6FF01214FF43840FCF7F1FF03214BF6A7
:104000000100FCF7ECFF03214BF60200FCF7E7FF91
:1040100003214BF60300FCF7E2FF02214FF43C4082
:10402000FCF7DDFF00214BF60140FCF7D8FF002133
:104030004BF60240FCF7D3FFD0214FF44940FCF788
:10404000CEFF02214CF60110FCF7C9FF50214CF6BF
:104050000210FCF7C4FF50214CF60310FCF7BFFF21
:1040600050214CF60410FCF7BAFF00214FF45450D5
:10407000FCF7B5FF55214FF46850FCF7B0FF4FF443
:104080008850FCF791FF782003F0ECFD4FF42450AA
:10409000FCF78AFF01F09DB8FE48808849F225317F
:1040A00088427DD147F6F001E520FCF798FF4FF4F8
:1040B00080710120FCF793FF4FF4E0610220FCF7D0
:1040C0008EFF41F230010320FCF789FF002104201C
:1040D000FCF785FF40F202210820FCF780FF002159
:1040E0000920FCF77CFF00210A20FCF778FF002163
:1040F0000C20FCF774FF00210D20FCF770FF00215D
:104100000F20FCF76CFF00211020FCF768FF07214F
:104110001120FCF764FF00211220FCF760FF002152
:104120001320FCF75CFF00210720FCF758FF41F249
:1041300090611020FCF753FF40F227211120FCF77B
:104140004EFF9D211220FCF74AFF4FF4C851132067
:10415000FCF745FF25212920FCF741FF0D212B20ED
:10416000FCF73DFF07213020FCF739FF40F2033117
:104170003120FCF734FF03213220FCF730FF40F2FE
:1041800006213520FCF72BFF08213620FCF727FFFE
:1041900040F206413720FCF722FF4FF4417100E066
:1041A00058E03820FCF71BFF07213920FCF717FFE8
:1041B00040F202613C20FCF712FF08213D20FCF791
:1041C0000EFF00215020FCF70AFFEF215120FCF7E1
:1041D00006FF00215220FCF702FF40F23F1153205E
:1041E000FCF7FDFE4FF427416020FCF7F8FE0121AB
:1041F0006120FCF7F4FE00216A20FCF7F0FE0021AC
:104200008020FCF7ECFE00218120FCF7E8FE002175
:104210008220FCF7E4FE00218320FCF7E0FE002171
:104220008420FCF7DCFE00218520FCF7D8FE10215D
:104230009020FCF7D4FE4FF4C0619220FCF7CFFE33
:1042400040F233110720FCF7CAFE22210020FCF7C0
:10425000C6FE1FE78F48808849F2283188427DD109
:1042600041F28F01EC20FCF7BAFE41F23421EF203D
:10427000FCF7B5FE4FF480710120FCF7B0FE4FF45F
:10428000E0610220FCF7ABFE41F230010320FCF7B5
:10429000A6FE00210420FCF7A2FE40F20221082025
:1042A000FCF79DFE00210920FCF799FE00210A2061
:1042B000FCF795FE01210C20FCF791FE00210D205A
:1042C000FCF78DFE00210F20FCF789FE0021102055
:1042D000FCF785FE07211120FCF781FE002112204A
:1042E000FCF77DFE00211320FCF779FE0121072059
:1042F000FCF775FE322003F0FDFC41F290411020E6
:10430000FCF76DFE40F227211120FCF768FE3220F9
:1043100003F0F0FC8A211220FCF761FE322003F04A
:10432000E9FC4FF4D0511320FCF759FE0621292057
:10433000FCF755FE0D212B20FCF751FE322003F037
:10434000D9FC00212020FCF74AFE00212120FCF7A7
:1043500046FE322003F0CEFC002100E075E0302064
:10436000FCF73DFE40F204613120FCF738FE40F2DC
:1043700005313220FCF733FE00213520FCF72FFEFB
:1043800040F609413620FCF72AFE4FF40171372030
:10439000FCF725FE40F201313820FCF720FE40F208
:1043A00007713920FCF71BFE00213C20FCF717FEAB
:1043B00040F60A213D20FCF712FE322003F09AFC61
:1043C00000215020FCF70BFEEF215120FCF707FEE7
:1043D00000215220FCF703FE40F23F115320FCF76E
:1043E000FEFD4FF427416020FCF7F9FD012161201B
:1043F000FCF7F5FD00216A20FCF7F1FD002180208B
:10440000FCF7EDFD00218120FCF7E9FD0021822071
:10441000FCF7E5FD00218320FCF7E1FD002184206D
:10442000FCF7DDFD00218520FCF7D9FD102190204F
:10443000FCF7D5FD4FF4C0619220FCF7D0FD40F2AF
:1044400033110720FCF7CBFD24E61248808849F29F
:10445000203188427ED100210846FCF7C0FD4FF490
:1044600080710120FCF7BBFD4FF4E0610220FCF7F6
:10447000B6FD41F230010320FCF7B1FD002104201C
:10448000FCF7ADFD40F202210820FCF7A8FD002159
:10449000092001E0B4060020FCF7A1FD00210A205C
:1044A000FCF79DFD01210C20FCF799FD00210D205A
:1044B000FCF795FD00210F20FCF791FD322003F061
:1044C00019FC40F201110720FCF789FD322003F0AE
:1044D00011FC4FF486511020FCF781FD07211120BB
:1044E000FCF77DFD4FF488711220FCF778FD4FF446
:1044F00030611320FCF773FD00212920FCF76FFDCC
:1045000044F210012B20FCF76AFD00215020FCF73B
:1045100066FDEF215120FCF762FD00215220FCF7DF
:104520005EFD40F23F115320FCF759FD4FF41C5142
:104530006020FCF754FD01216120FCF750FD0021B3
:104540006A20FCF74CFD00218020FCF748FD00218B
:10455000812000E030E0FCF742FD00218220FCF7E2
:104560003EFD00218320FCF73AFD00218420FCF76A
:1045700036FD00218520FCF732FD10219020FCF74C
:104580002EFD00219220FCF72AFD01219320FCF74B
:1045900026FD4FF488719520FCF721FD002197201E
:1045A000FCF71DFD00219820FCF719FD40F2731166
:1045B0000720FCF714FD6DE5FE48808849F2313193
:1045C00088427DD141F21401E720FCF708FD4FF449
:1045D00080710120FCF703FD4FF400710220FCF70D
:1045E000FEFC41F238010320FCF7F9FC40F2022105
:1045F0000820FCF7F4FC00210920FCF7F0FC002166
:104600000A20FCF7ECFC00210C20FCF7E8FC002160
:104610000D20FCF7E4FC00210F20FCF7E0FC00215A
:104620001020FCF7DCFC07211120FCF7D8FC00214E
:104630001220FCF7D4FC00211320FCF7D0FCC8208A
:1046400003F058FB41F290611020FCF7C8FC40F2E7
:1046500027211120FCF7C3FC322003F04BFB0C2177
:104660001220FCF7BCFC322003F044FB4FF4006145
:104670001320FCF7B4FC11212920FCF7B0FC0B211E
:104680002B20FCF7ACFC322003F034FB002120206F
:10469000FCF7A5FC40F23F112120FCF7A0FC002113
:1046A0003020FCF79CFC4FF483713120FCF797FC21
:1046B00000213220FCF793FC4FF40171352000E01B
:1046C00064E0FCF78CFC41F20A613620FCF787FCC1
:1046D00040F207713720FCF782FC4FF483713820D9
:1046E000FCF77DFC40F207713920FCF778FC40F2C2
:1046F00002413C20FCF773FC40F60F413D20FCF7E3
:104700006EFC00215020FCF76AFCEF215120FCF7E1
:1047100066FC00215220FCF762FC40F23F1153205E
:10472000FCF75DFC4FF41C516020FCF758FC0121A4
:104730006120FCF754FC00216A20FCF750FC0021AA
:104740008020FCF74CFC00218120FCF748FC002174
:104750008220FCF744FC00218320FCF740FC002170
:104760008420FCF73CFC00218520FCF738FC10215C
:104770009020FCF734FC4FF4C0619220FCF72FFC32
:1047800040F233110720FCF72AFC83E48948808833
:1047900045F2084188427DD14FF480710120FCF739
:1047A0001EFC4FF4E0610220FCF719FC41F23001DD
:1047B0000320FCF714FC00210420FCF710FC40F25D
:1047C00007210820FCF70BFC00210920FCF707FC5F
:1047D00000210A20FCF703FC00210C20FCF7FFFB62
:1047E00000210D20FCF7FBFB00210F20FCF7F7FB5D
:1047F000142003F07FFA41F2B0611020FCF7EFFBC8
:1048000001211120FCF7EBFB01211720FCF7E7FB4E
:104810004FF49C711220FCF7E2FB4FF4006113206F
:10482000FCF7DDFB09212920FCF7D9FB09212A200F
:10483000FCF7D5FB0021A420FCF7D1FB0021502080
:10484000FCF7CDFBEF215120FCF7C9FB00215220E2
:10485000FCF7C5FB40F23F115320FCF7C0FB4FF4BF
:104860001C516020FCF7BBFB01216120FCF7B7FB6A
:1048700000216A20FCF7B3FB00218020FCF7AFFB8E
:1048800000218120FCF7ABFB00218220FCF7A7FB75
:10489000002100E024E08320FCF7A1FB002184201C
:1048A000FCF79DFB00218520FCF799FB132190204C
:1048B000FCF795FB00219220FCF791FB032193204C
:1048C000FCF78DFB4FF488719520FCF788FB40F2D4
:1048D00073110720FCF783FB322003F00BFAB8E4D6
:1048E0003448808841F2055188427DD1002107205B
:1048F000FCF775FB322003F0FDF94FF48E711220A6
:10490000FCF76DFB0121A420FCF769FB0F210820B7
:10491000FCF765FB08210A20FCF761FB08210D204C
:10492000FCF75DFB40F207713020FCF758FB0721D4
:104930003120FCF754FB40F203613220FCF74FFBBF
:104940004FF4E0613320FCF74AFB40F202213420AF
:10495000FCF745FB02213520FCF741FB41F60F71C6
:104960003620FCF73CFB40F207713720FCF737FBA1
:1049700000213820FCF733FB00213920FCF72FFB06
:1049800040F207713A20FCF72AFB00213B20FCF79C
:1049900026FB07213C20FCF722FB00213D20FCF7F1
:1049A0001EFB322003F0A6F901210720FCF717FBBC
:1049B000012101E0B40600201720FCF710FB322093
:1049C00003F098F94FF4BD511020FCF708FB40F2BA
:1049D00017211120FCF703FB4FF48F711220FCF715
:1049E000FEFA4FF4706100E098E01320FCF7F7FA4C
:1049F00000212A20FCF7F3FA0A212920FCF7EFFA1C
:104A00004FF49F711220FCF7EAFA00215020FCF7C6
:104A1000E6FAEF215120FCF7E2FA00215220FCF7E0
:104A2000DEFA40F23F115320FCF7D9FA4FF41C5143
:104A30006020FCF7D4FA01216120FCF7D0FA0021B4
:104A40006A20FCF7CCFA00218020FCF7C8FA00218C
:104A50008120FCF7C4FA00218220FCF7C0FA002173
:104A60008320FCF7BCFA00218420FCF7B8FA00216F
:104A70008520FCF7B4FA13219020FCF7B0FA4FF42C
:104A800040719220FCF7ABFA05219320FCF7A7FABE
:104A900000219520FCF7A3FA00219720FCF79FFA4C
:104AA00000219820FCF79BFA4FF480710120FCF75D
:104AB00096FA4FF4E0610220FCF791FA41F23801D6
:104AC0000320FCF78CFA00210420FCF788FA00216F
:104AD0000C20FCF784FA00210F20FCF780FA00215B
:104AE0002020FCF77CFA00212120FCF778FA212114
:104AF0000720FCF774FA142003F0FCF8612107206A
:104B0000FCF76DFA142003F0F5F840F2731107205A
:104B1000FCF765FA142003F0EDF85AE3FE488088AC
:104B20004BF2055188427CD100210846FCF757FA28
:104B300000210846FCF753FA00210846FCF74FFA1B
:104B400000210846FCF74BFA0121A420FCF747FAA4
:104B5000142003F0CFF84FF41C516020FCF73FFA0B
:104B600040F202210820FCF73AFA4FF40571302098
:104B7000FCF735FA43F215713120FCF730FA40F2B8
:104B800004613220FCF72BFA40F616613320FCF763
:104B900026FA42F211213420FCF721FA4FF4A851F1
:104BA0003520FCF71CFA48F207513620FCF717FABB
:104BB00041F207413720FCF712FA41F20341382055
:104BC000FCF70DFA20213920FCF709FA1A21902070
:104BD000FCF705FA00211020FCF701FA072111204B
:104BE000FCF7FDF900211220FCF7F9F90021132050
:104BF000FCF7F5F9142003F07DF84FF4E66110207E
:104C0000FCF7EDF940F237111120FCF7E8F9142018
:104C100003F070F84FF4DC711220FCF7E0F9142077
:104C200000E085E003F066F84FF470611320FCF7B4
:104C3000D6F980212A20FCF7D2F948212920FCF757
:104C4000CEF9142003F056F84FF480710120FCF7E0
:104C5000C6F94FF4E0610220FCF7C1F941F23801D6
:104C60000320FCF7BCF940F202210820FCF7B7F959
:104C700000210A20FCF7B3F900210C20FCF7AFF962
:104C800000210D20FCF7ABF930210E20FCF7A7F92D
:104C900000215020FCF7A3F9EF215120FCF79FF9E8
:104CA00000215220FCF79BF940F23F115320FCF702
:104CB00096F94FF41C516020FCF791F90121612015
:104CC000FCF78DF900216A20FCF789F91121902069
:104CD000FCF785F94FF4C0619220FCF780F940F2AF
:104CE00002419320FCF77BF902219420FCF777F92D
:104CF000142002F0FFFF01210720FCF770F91420B7
:104D000002F0F8FF61210720FCF769F940F2731106
:104D10000720FCF764F900212020FCF760F900214E
:104D20002120FCF75CF922210020FCF758F950E221
:104D3000794880884CF2055188427CD10021084690
:104D4000FCF74DF900210846FCF749F9142002F060
:104D5000D1FF00210846FCF742F900210846FCF784
:104D60003EF900210846FCF73AF900210846FCF715
:104D700036F90121A420FCF732F9142002F0BAFF21
:104D80004FF41C516020FCF72AF940F60601082078
:104D9000FCF725F940F203713020FCF720F90121DE
:104DA0003120FCF71CF904213220FCF718F94FF4EC
:104DB00081713320FCF713F94FF440713420FCF774
:104DC0000EF940F203113520FCF709F91F213620B6
:104DD000FCF705F940F203713720FCF700F90121D7
:104DE0003820FCF7FCF804213920FCF7F8F81521ED
:104DF0009020FCF7F4F84FF482611020FCF7EFF8F4
:104E000040F247211120FCF7EAF84FF4DE7112203E
:104E1000FCF7E5F84FF460611320FCF7E0F8782028
:104E200002F068FF4FF480710120FCF7D8F84FF4CE
:104E30000071022000E052E0FCF7D1F841F23001AD
:104E40000320FCF7CCF808210A20FCF7C8F8002161
:104E50000C20FCF7C4F820210E20FCF7C0F800213C
:104E60000F20FCF7BCF800212020FCF7B8F8002147
:104E70002120FCF7B4F83D212A20FCF7B0F81420DB
:104E800002F038FF2D212920FCF7A9F8002150203D
:104E9000FCF7A5F84DF2EF015120FCF7A0F8002136
:104EA0005220FCF79CF840F23F115320FCF797F892
:104EB00000216120FCF793F800216A20FCF78FF8AD
:104EC0004FF440719220FCF78AF805219320FCF7FB
:104ED00086F84FF480710720FCF781F879E10E48DD
:104EE000808844F2315188427ED101210020FCF7B4
:104EF00076F80A2002F0FEFE41F228611020FCF74D
:104F00006EF80E211220FCF76AF840F639211320C2
:104F1000FCF765F80A2001E0B406002002F0EAFE82
:104F200040211120FCF75BF850211520FCF757F8C1
:104F30000A2002F0DFFE1E211220FCF750F80A20A2
:104F400002F0D8FE4FF4B1511020FCF748F842F6B9
:104F500039211320FCF743F80A2002F0CBFE4FF46E
:104F600080710120FCF73BF84FF440710220FCF700
:104F700036F841F238010320FCF731F840F2022103
:104F80000820FCF72CF808210A20FCF728F800215B
:104F90003020FCF724F840F202413120FCF71FF8E2
:104FA0004FF483713220FCF71AF840F2035133209A
:104FB000FCF715F84FF482713420FCF710F840F23A
:104FC00001313520FCF70BF840F207713620FCF771
:104FD00006F840F205313720FCF701F84FF4027172
:104FE0003820FBF7FCFF00E03EE040F60B71392073
:104FF000FBF7F5FF02214120FBF7F1FF4FF41C51B5
:105000006020FBF7ECFF01216120FBF7E8FF4FF484
:1050100004719020FBF7E3FF4FF485719220FBF7BA
:10502000DEFF04219320FBF7DAFF4FF48071A0200C
:10503000FBF7D5FF01210720FBF7D1FF2121072036
:10504000FBF7CDFF23210720FBF7C9FF3321072002
:10505000FBF7C5FF40F233110720FBF7C0FF00212B
:10506000A020FBF7BCFFB4E0FE48808844F2355135
:105070008842F8D130211520FBF7B1FF10219A208A
:10508000FBF7ADFF20211120FBF7A9FF43F22841D8
:105090001020FBF7A4FF02211220FBF7A0FF41F232
:1050A00038011320FBF79BFF282002F023FE12217A
:1050B0000846FBF794FF282002F01CFE43F2204133
:1050C0001020FBF78CFF43F238011320FBF787FF1A
:1050D000462002F00FFE00213020FBF780FF40F257
:1050E00002413120FBF77BFF40F207313220FBF712
:1050F00076FF4FF441713320FBF771FF0421342018
:10510000FBF76DFF40F201413520FBF768FF40F2ED
:1051100007713620FBF763FF40F205313720FBF7BC
:105120005EFF4FF4C2613820FBF759FF4FF4C261B4
:105130003920FBF754FF4FF480710120FBF74FFF3C
:105140004FF440710220FBF74AFF41F23001032087
:10515000FBF745FF40F608010820FBF740FF082158
:105160000A20FBF73CFF4FF41C516020FBF737FF90
:1051700001216120FBF733FF4FF49F719020FBF773
:105180002EFF4FF480719220FBF729FF4FF48071BE
:105190009320FBF724FF4FF44051A020FBF71FFFA3
:1051A0001021A320FBF71BFF01210720FBF717FFAE
:1051B00021210720FBF713FF23210720FBF70FFF17
:1051C00033210720FBF70BFF40F233110720FBF7D9
:1051D00006FF0020FCF7C1FA0120A34908604FF642
:1051E000FF70FCF736FC21B000BD2DE9FC4F0546F1
:1051F0000E4617469846DDF82C90002001909948FD
:10520000808846F60401884229D196488079012891
:1052100025D1AB46354693480088C01B401E86B258
:10522000474690480088A0EB0B00401E1FFA80F80C
:1052300000208C4988712A2048812B208881434690
:105240003A4631462846CDF80090FFF7CEFF0120C0
:10525000844988712B2048812A2088811CE0781B92
:10526000401C80B20190344614E021462846FBF7EA
:10527000E8FEFBF7C9FE4FF0000A06E07B48A0F805
:1052800000900AF101001FFA80FA01988245F5DBCF
:10529000601C84B24445E8DDBDE8FC8F2DE9F84F81
:1052A00007460D4690469946DDF828B0A8EB070062
:1052B000401C1FFA80FAA9EB0500401C80B2009048
:1052C000002414E0281981B23846FBF7BAFEFBF738
:1052D0009BFE002607E004FB0A603BF810006349D0
:1052E0000880701C86B25645F5DB601C84B20098BD
:1052F0008442E7DBBDE8F88F2DE9FF4F85B081469A
:105300008A46002003900290129804900798A0EB20
:1053100009050898A0EB0A06CDF80490CDF800A086
:10532000002D01DD012705E00DB9002702E04FF057
:10533000FF376D42002E02DD4FF0010806E016B97E
:105340004FF0000802E04FF0FF387642B54201DD31
:105350002C4600E034464FF0000B22E0009A91B258
:10536000019A90B2049AFCF76DF9039828440390CF
:105370000298304402900398A04205DD0398001B78
:1053800003900198384401900298A04205DD0298EC
:10539000001B02900098404400900BF101001FFA9E
:1053A00080FB601C8345D9DD09B0BDE8F08F2DE995
:1053B000F84306460F4690469946089C25463B46CC
:1053C0004246394630460095FFF796FF4B46324637
:1053D000394630460095FFF78FFF4B464246494617
:1053E00030460095FFF788FF4B4642463946404617
:1053F0000095FFF781FFBDE8F8832DE9F0430646ED
:105400000F469046002445460320A0EB480944E09F
:105410007A1B91B2321990B2FCF706F93A1B91B29D
:10542000721990B2FCF700F93A1991B2721990B260
:10543000FCF7FAF87A1991B2321990B2FCF7F4F845
:105440007A1991B2321B90B2FCF7EEF83A1991B288
:10545000721B90B2FCF7E8F87A1B91B2321B90B243
:1054600006E00000B406002084824042000008608C
:10547000FCF7DAF83A1B91B2721B90B2FCF7D4F841
:10548000641CB9F1000F03DAA000801D814404E020
:10549000601B80000A3081446D1EAC42B8DDBDE85F
:1054A000F0832DE9FE4F80460E4617461C46B34654
:1054B0002046E31704EB5373DB1021464FEAE47CEC
:1054C00004EB5C7C4FEAEC0CA4EBCC0CBCF1000FC1
:1054D00002D04FF0010C01E04FF0000C6344224673
:1054E00004EBD27C4FEA6C0C03FB0CF3DBB20093B1
:1054F0000E9801900D980290A7F12000C7B20025E8
:1055000054E00C2C07D107EB4700AA4901EB8000BF
:1055100010F8059013E0102C05D1A74800EB0710F8
:1055200010F805900BE0182C07D107EBC700A34932
:1055300001EB800010F8059001E0BDE8FE8F4FF010
:10554000000A2DE009F0800028B131464046019A5A
:10555000FCF778F806E00C9820B931464046029AEC
:10556000FCF770F84FEA49604FEA1069701C86B288
:1055700093484088B04200DCDFE7A6EB0B00A04276
:105580000AD15E4608F101001FFA80F88C480088B5
:10559000404500DCD1E706E00AF1010000F0FF0A17
:1055A000BAF1080FCEDB00BF681CC5B20098854277
:1055B000A7DB00BFC1E710B50246012000E0504361
:1055C0000B00A1F10104E1B2F9D110BD2DE9FF4FAB
:1055D00085B0074691461E46129D00200490DDF8D6
:1055E00050B0DDF84CA000243AE0301B401EC1B2A0
:1055F0000A20FFF7E0FFB9FBF0F00A21B0FBF1F25F
:1056000001FB12080498B8B9701EA04214DDB8F16D
:10561000000F0FD1002005EBD571491001FB04717B
:105620008DE8010C039588B22B4620220699FFF7DE
:1056300038FF13E001200490002005EBD5714910DC
:1056400001FB04718DE8010C039588B208F130016B
:10565000CAB22B460699FFF724FF00BF601CC4B2F4
:10566000B442C2DB09B0BDE8F08F2DE9FF4F85B031
:1056700006461F46DDE9124800200490DDF854B0CC
:10568000DDF850A0002551E0781B401EC1B20A2071
:10569000FFF791FF0799B1FBF0F00A21B0FBF1F29F
:1056A00001FB1209049860BB781EA84229DDB9F1FC
:1056B000000F24D108F0800080B108F0010004EB55
:1056C000D471491001FB05618DE8010C039488B287
:1056D000234630220699FFF7E4FE0FE008F00100B0
:1056E00004EBD471491001FB05618DE8010C0394B2
:1056F00088B2234620220699FFF7D3FE14E001204A
:10570000049008F0010004EBD471491001FB05611D
:105710008DE8010C039488B209F13001CAB2234626
:105720000699FFF7BEFE00BF681CC5B2BD42ABDBE9
:1057300009B0BDE8F08F2DE9F04F86B004460D4664
:10574000904699460FAE96E8C00CE0B20590CDF8B1
:105750000CB0CDF810A008EB04001FFA80F809EB9C
:1057600005001FFA80F91AE0444502DB059CA819E0
:1057700085B24D4500DB18E00022DDE90301CDE9EB
:10578000002102903A78334629462046FFF789FEE9
:10579000304606EBD07104EB61018CB27F1C387887
:1057A0007E2802DC38782028DEDA00BF06B0BDE8AB
:1057B000F08F000028B500089CB900088CBF0008D5
:1057C000B406002000B59BB00121084603F026FC7A
:1057D0000121080203F07CFC0121880503F01EFC76
:1057E0000121080203F0C9FC00214FF4807003F08E
:1057F000C4FC7A4803F090FF00BF784804F0B5F885
:105800000028FAD100907648019076480290002056
:1058100003904FF420700490002005904FF48060B6
:1058200006904000079080000890002009904FF4F7
:1058300000300A9000200B9001200C9000200D9069
:105840000E906946654804F009F80121634804F0A8
:105850003FF82020199003208DF8680000208DF873
:105860006B0019A9604802F057FE002015901890AF
:1058700017904FF48030169015A802F0CFFB00204F
:105880000F908DF840008DF841004FF0805011903E
:105890004FF0E06012900020139001208DF850002E
:1058A0000FA94F484C3802F08AFB00230122052142
:1058B0004B484C3802F009FC012149484C3802F0B1
:1058C000AFFC012146484C3802F09FFC01214448BE
:1058D0004C3802F0BAFB1BB000BD10B5FFF772FFE9
:1058E0000021424804F0E2F941480088032811DD14
:1058F000012229213F4804F0CDF93D4800881921B3
:1059000090FBF1F00121C1EB40042146394804F03D
:10591000CFF908E001222921364804F0BBF9012122
:10592000344804F0C5F90121304804F0FFF900BF04
:1059300031492A4804F029F80028F9D000212B48E1
:1059400004F0F4F910BD0021DFED2C0AB0EE600A7E
:10595000244800882A4A106022480088294A10609A
:105960001E2118E01F4830F81100254A12689042A5
:1059700004D91C4830F81100214A1060194830F849
:105980001100204A1268904204D2164830F81100E3
:105990001C4A1060491CB1F5A07FE3D31848006889
:1059A000184A1268801A00EE900AF8EE600AB0EE0B
:1059B000600A1548D0ED000A9FED141A20EE811AF6
:1059C000DFED131AC1EE210A60EE800AB0EE600A24
:1059D000FCEEC00A10EE900A80B2704710640240DC
:1059E0004C200140C206002000000240000400409C
:1059F0003A000020000001402000001000000000DC
:105A00006C020020700200206402002000404E451D
:105A100000F07F4538B50446FE480068072845D2A7
:105A2000DFE800F0040D161F28313B0026234FF459
:105A30009E720221FF200094FFF7B9FC37E04E234D
:105A40004FF49E722A21FF200094FFF7B0FC2EE055
:105A500065234FF49E725221FF200094FFF7A7FCAC
:105A600025E07C234FF49E726921FF200094FFF70C
:105A70009EFC1CE0932340F21B128021FF20009427
:105A8000FFF795FC13E093234FF49E7280214FF4AF
:105A900090700094FFF78BFC09E0AA234FF49E72EC
:105AA0009721FF200094FFF782FC00E000BF00BFB9
:105AB00038BD00B58BB00121022003F0F8FA0121B6
:105AC000042003F0ABFA4020019002208DF808007A
:105AD00003208DF8090000208DF80A0001208DF8C0
